{
  "_format": "hh-sol-artifact-1",
  "contractName": "Dappcord",
  "sourceName": "contracts/Dappcord.sol",
  "abi": [
    {
      "inputs": [
        {
          "internalType": "string",
          "name": "_name",
          "type": "string"
        },
        {
          "internalType": "string",
          "name": "_symbol",
          "type": "string"
        }
      ],
      "stateMutability": "nonpayable",
      "type": "constructor"
    },
    {
      "anonymous": false,
      "inputs": [
        {
          "indexed": true,
          "internalType": "address",
          "name": "owner",
          "type": "address"
        },
        {
          "indexed": true,
          "internalType": "address",
          "name": "approved",
          "type": "address"
        },
        {
          "indexed": true,
          "internalType": "uint256",
          "name": "tokenId",
          "type": "uint256"
        }
      ],
      "name": "Approval",
      "type": "event"
    },
    {
      "anonymous": false,
      "inputs": [
        {
          "indexed": true,
          "internalType": "address",
          "name": "owner",
          "type": "address"
        },
        {
          "indexed": true,
          "internalType": "address",
          "name": "operator",
          "type": "address"
        },
        {
          "indexed": false,
          "internalType": "bool",
          "name": "approved",
          "type": "bool"
        }
      ],
      "name": "ApprovalForAll",
      "type": "event"
    },
    {
      "anonymous": false,
      "inputs": [
        {
          "indexed": true,
          "internalType": "address",
          "name": "from",
          "type": "address"
        },
        {
          "indexed": true,
          "internalType": "address",
          "name": "to",
          "type": "address"
        },
        {
          "indexed": true,
          "internalType": "uint256",
          "name": "tokenId",
          "type": "uint256"
        }
      ],
      "name": "Transfer",
      "type": "event"
    },
    {
      "inputs": [
        {
          "internalType": "address",
          "name": "to",
          "type": "address"
        },
        {
          "internalType": "uint256",
          "name": "tokenId",
          "type": "uint256"
        }
      ],
      "name": "approve",
      "outputs": [],
      "stateMutability": "nonpayable",
      "type": "function"
    },
    {
      "inputs": [
        {
          "internalType": "address",
          "name": "owner",
          "type": "address"
        }
      ],
      "name": "balanceOf",
      "outputs": [
        {
          "internalType": "uint256",
          "name": "",
          "type": "uint256"
        }
      ],
      "stateMutability": "view",
      "type": "function"
    },
    {
      "inputs": [
        {
          "internalType": "uint256",
          "name": "",
          "type": "uint256"
        }
      ],
      "name": "channels",
      "outputs": [
        {
          "internalType": "uint256",
          "name": "id",
          "type": "uint256"
        },
        {
          "internalType": "string",
          "name": "name",
          "type": "string"
        },
        {
          "internalType": "uint256",
          "name": "cost",
          "type": "uint256"
        }
      ],
      "stateMutability": "view",
      "type": "function"
    },
    {
      "inputs": [
        {
          "internalType": "string",
          "name": "_name",
          "type": "string"
        },
        {
          "internalType": "uint256",
          "name": "_cost",
          "type": "uint256"
        }
      ],
      "name": "createChannel",
      "outputs": [],
      "stateMutability": "nonpayable",
      "type": "function"
    },
    {
      "inputs": [
        {
          "internalType": "uint256",
          "name": "tokenId",
          "type": "uint256"
        }
      ],
      "name": "getApproved",
      "outputs": [
        {
          "internalType": "address",
          "name": "",
          "type": "address"
        }
      ],
      "stateMutability": "view",
      "type": "function"
    },
    {
      "inputs": [
        {
          "internalType": "uint256",
          "name": "_id",
          "type": "uint256"
        }
      ],
      "name": "getChannel",
      "outputs": [
        {
          "components": [
            {
              "internalType": "uint256",
              "name": "id",
              "type": "uint256"
            },
            {
              "internalType": "string",
              "name": "name",
              "type": "string"
            },
            {
              "internalType": "uint256",
              "name": "cost",
              "type": "uint256"
            }
          ],
          "internalType": "struct Dappcord.Channel",
          "name": "",
          "type": "tuple"
        }
      ],
      "stateMutability": "view",
      "type": "function"
    },
    {
      "inputs": [
        {
          "internalType": "uint256",
          "name": "",
          "type": "uint256"
        },
        {
          "internalType": "address",
          "name": "",
          "type": "address"
        }
      ],
      "name": "hasJoined",
      "outputs": [
        {
          "internalType": "bool",
          "name": "",
          "type": "bool"
        }
      ],
      "stateMutability": "view",
      "type": "function"
    },
    {
      "inputs": [
        {
          "internalType": "address",
          "name": "owner",
          "type": "address"
        },
        {
          "internalType": "address",
          "name": "operator",
          "type": "address"
        }
      ],
      "name": "isApprovedForAll",
      "outputs": [
        {
          "internalType": "bool",
          "name": "",
          "type": "bool"
        }
      ],
      "stateMutability": "view",
      "type": "function"
    },
    {
      "inputs": [
        {
          "internalType": "uint256",
          "name": "_id",
          "type": "uint256"
        }
      ],
      "name": "mint",
      "outputs": [],
      "stateMutability": "payable",
      "type": "function"
    },
    {
      "inputs": [],
      "name": "name",
      "outputs": [
        {
          "internalType": "string",
          "name": "",
          "type": "string"
        }
      ],
      "stateMutability": "view",
      "type": "function"
    },
    {
      "inputs": [],
      "name": "owner",
      "outputs": [
        {
          "internalType": "address",
          "name": "",
          "type": "address"
        }
      ],
      "stateMutability": "view",
      "type": "function"
    },
    {
      "inputs": [
        {
          "internalType": "uint256",
          "name": "tokenId",
          "type": "uint256"
        }
      ],
      "name": "ownerOf",
      "outputs": [
        {
          "internalType": "address",
          "name": "",
          "type": "address"
        }
      ],
      "stateMutability": "view",
      "type": "function"
    },
    {
      "inputs": [
        {
          "internalType": "address",
          "name": "from",
          "type": "address"
        },
        {
          "internalType": "address",
          "name": "to",
          "type": "address"
        },
        {
          "internalType": "uint256",
          "name": "tokenId",
          "type": "uint256"
        }
      ],
      "name": "safeTransferFrom",
      "outputs": [],
      "stateMutability": "nonpayable",
      "type": "function"
    },
    {
      "inputs": [
        {
          "internalType": "address",
          "name": "from",
          "type": "address"
        },
        {
          "internalType": "address",
          "name": "to",
          "type": "address"
        },
        {
          "internalType": "uint256",
          "name": "tokenId",
          "type": "uint256"
        },
        {
          "internalType": "bytes",
          "name": "data",
          "type": "bytes"
        }
      ],
      "name": "safeTransferFrom",
      "outputs": [],
      "stateMutability": "nonpayable",
      "type": "function"
    },
    {
      "inputs": [
        {
          "internalType": "address",
          "name": "operator",
          "type": "address"
        },
        {
          "internalType": "bool",
          "name": "approved",
          "type": "bool"
        }
      ],
      "name": "setApprovalForAll",
      "outputs": [],
      "stateMutability": "nonpayable",
      "type": "function"
    },
    {
      "inputs": [
        {
          "internalType": "bytes4",
          "name": "interfaceId",
          "type": "bytes4"
        }
      ],
      "name": "supportsInterface",
      "outputs": [
        {
          "internalType": "bool",
          "name": "",
          "type": "bool"
        }
      ],
      "stateMutability": "view",
      "type": "function"
    },
    {
      "inputs": [],
      "name": "symbol",
      "outputs": [
        {
          "internalType": "string",
          "name": "",
          "type": "string"
        }
      ],
      "stateMutability": "view",
      "type": "function"
    },
    {
      "inputs": [
        {
          "internalType": "uint256",
          "name": "tokenId",
          "type": "uint256"
        }
      ],
      "name": "tokenURI",
      "outputs": [
        {
          "internalType": "string",
          "name": "",
          "type": "string"
        }
      ],
      "stateMutability": "view",
      "type": "function"
    },
    {
      "inputs": [],
      "name": "totalChannels",
      "outputs": [
        {
          "internalType": "uint256",
          "name": "",
          "type": "uint256"
        }
      ],
      "stateMutability": "view",
      "type": "function"
    },
    {
      "inputs": [],
      "name": "totalSupply",
      "outputs": [
        {
          "internalType": "uint256",
          "name": "",
          "type": "uint256"
        }
      ],
      "stateMutability": "view",
      "type": "function"
    },
    {
      "inputs": [
        {
          "internalType": "address",
          "name": "from",
          "type": "address"
        },
        {
          "internalType": "address",
          "name": "to",
          "type": "address"
        },
        {
          "internalType": "uint256",
          "name": "tokenId",
          "type": "uint256"
        }
      ],
      "name": "transferFrom",
      "outputs": [],
      "stateMutability": "nonpayable",
      "type": "function"
    },
    {
      "inputs": [],
      "name": "withdraw",
      "outputs": [],
      "stateMutability": "nonpayable",
      "type": "function"
    }
  ],
  "bytecode": "0x608060405260006007553480156200001657600080fd5b50604051620039503803806200395083398181016040528101906200003c919062000240565b818181600090816200004f919062000510565b50806001908162000061919062000510565b50505033600860006101000a81548173ffffffffffffffffffffffffffffffffffffffff021916908373ffffffffffffffffffffffffffffffffffffffff1602179055505050620005f7565b6000604051905090565b600080fd5b600080fd5b600080fd5b600080fd5b6000601f19601f8301169050919050565b7f4e487b7100000000000000000000000000000000000000000000000000000000600052604160045260246000fd5b6200011682620000cb565b810181811067ffffffffffffffff82111715620001385762000137620000dc565b5b80604052505050565b60006200014d620000ad565b90506200015b82826200010b565b919050565b600067ffffffffffffffff8211156200017e576200017d620000dc565b5b6200018982620000cb565b9050602081019050919050565b60005b83811015620001b657808201518184015260208101905062000199565b60008484015250505050565b6000620001d9620001d38462000160565b62000141565b905082815260208101848484011115620001f857620001f7620000c6565b5b6200020584828562000196565b509392505050565b600082601f830112620002255762000224620000c1565b5b815162000237848260208601620001c2565b91505092915050565b600080604083850312156200025a5762000259620000b7565b5b600083015167ffffffffffffffff8111156200027b576200027a620000bc565b5b62000289858286016200020d565b925050602083015167ffffffffffffffff811115620002ad57620002ac620000bc565b5b620002bb858286016200020d565b9150509250929050565b600081519050919050565b7f4e487b7100000000000000000000000000000000000000000000000000000000600052602260045260246000fd5b600060028204905060018216806200031857607f821691505b6020821081036200032e576200032d620002d0565b5b50919050565b60008190508160005260206000209050919050565b60006020601f8301049050919050565b600082821b905092915050565b600060088302620003987fffffffffffffffffffffffffffffffffffffffffffffffffffffffffffffffff8262000359565b620003a4868362000359565b95508019841693508086168417925050509392505050565b6000819050919050565b6000819050919050565b6000620003f1620003eb620003e584620003bc565b620003c6565b620003bc565b9050919050565b6000819050919050565b6200040d83620003d0565b620004256200041c82620003f8565b84845462000366565b825550505050565b600090565b6200043c6200042d565b6200044981848462000402565b505050565b5b8181101562000471576200046560008262000432565b6001810190506200044f565b5050565b601f821115620004c0576200048a8162000334565b620004958462000349565b81016020851015620004a5578190505b620004bd620004b48562000349565b8301826200044e565b50505b505050565b600082821c905092915050565b6000620004e560001984600802620004c5565b1980831691505092915050565b6000620005008383620004d2565b9150826002028217905092915050565b6200051b82620002c5565b67ffffffffffffffff811115620005375762000536620000dc565b5b620005438254620002ff565b6200055082828562000475565b600060209050601f83116001811462000588576000841562000573578287015190505b6200057f8582620004f2565b865550620005ef565b601f198416620005988662000334565b60005b82811015620005c2578489015182556001820191506020850194506020810190506200059b565b86831015620005e25784890151620005de601f891682620004d2565b8355505b6001600288020188555050505b505050505050565b61334980620006076000396000f3fe6080604052600436106101355760003560e01c806370a08231116100ab578063a14865cd1161006f578063a14865cd1461042d578063a22cb46514610456578063b88d4fde1461047f578063c87b56dd146104a8578063e5949b5d146104e5578063e985e9c51461052457610135565b806370a08231146103535780637734a9f6146103905780638da5cb5b146103bb57806395d89b41146103e6578063a0712d681461041157610135565b806318160ddd116100fd57806318160ddd1461024557806323b872dd146102705780633ccfd60b1461029957806342842e0e146102b05780636352211e146102d9578063681947191461031657610135565b806301ffc9a71461013a57806306fdde0314610177578063081812fc146101a2578063095ea7b3146101df57806310df54a014610208575b600080fd5b34801561014657600080fd5b50610161600480360381019061015c919061205c565b610561565b60405161016e91906120a4565b60405180910390f35b34801561018357600080fd5b5061018c610643565b604051610199919061214f565b60405180910390f35b3480156101ae57600080fd5b506101c960048036038101906101c491906121a7565b6106d5565b6040516101d69190612215565b60405180910390f35b3480156101eb57600080fd5b506102066004803603810190610201919061225c565b61071b565b005b34801561021457600080fd5b5061022f600480360381019061022a91906121a7565b610832565b60405161023c9190612345565b60405180910390f35b34801561025157600080fd5b5061025a610905565b6040516102679190612376565b60405180910390f35b34801561027c57600080fd5b5061029760048036038101906102929190612391565b61090b565b005b3480156102a557600080fd5b506102ae61096b565b005b3480156102bc57600080fd5b506102d760048036038101906102d29190612391565b610a60565b005b3480156102e557600080fd5b5061030060048036038101906102fb91906121a7565b610a80565b60405161030d9190612215565b60405180910390f35b34801561032257600080fd5b5061033d600480360381019061033891906123e4565b610b06565b60405161034a91906120a4565b60405180910390f35b34801561035f57600080fd5b5061037a60048036038101906103759190612424565b610b35565b6040516103879190612376565b60405180910390f35b34801561039c57600080fd5b506103a5610bec565b6040516103b29190612376565b60405180910390f35b3480156103c757600080fd5b506103d0610bf2565b6040516103dd9190612215565b60405180910390f35b3480156103f257600080fd5b506103fb610c18565b604051610408919061214f565b60405180910390f35b61042b600480360381019061042691906121a7565b610caa565b005b34801561043957600080fd5b50610454600480360381019061044f9190612586565b610de6565b005b34801561046257600080fd5b5061047d6004803603810190610478919061260e565b610ebb565b005b34801561048b57600080fd5b506104a660048036038101906104a191906126ef565b610ed1565b005b3480156104b457600080fd5b506104cf60048036038101906104ca91906121a7565b610f33565b6040516104dc919061214f565b60405180910390f35b3480156104f157600080fd5b5061050c600480360381019061050791906121a7565b610f9b565b60405161051b93929190612772565b60405180910390f35b34801561053057600080fd5b5061054b600480360381019061054691906127b0565b61104d565b60405161055891906120a4565b60405180910390f35b60007f80ac58cd000000000000000000000000000000000000000000000000000000007bffffffffffffffffffffffffffffffffffffffffffffffffffffffff1916827bffffffffffffffffffffffffffffffffffffffffffffffffffffffff1916148061062c57507f5b5e139f000000000000000000000000000000000000000000000000000000007bffffffffffffffffffffffffffffffffffffffffffffffffffffffff1916827bffffffffffffffffffffffffffffffffffffffffffffffffffffffff1916145b8061063c575061063b826110e1565b5b9050919050565b6060600080546106529061281f565b80601f016020809104026020016040519081016040528092919081815260200182805461067e9061281f565b80156106cb5780601f106106a0576101008083540402835291602001916106cb565b820191906000526020600020905b8154815290600101906020018083116106ae57829003601f168201915b5050505050905090565b60006106e08261114b565b6004600083815260200190815260200160002060009054906101000a900473ffffffffffffffffffffffffffffffffffffffff169050919050565b600061072682610a80565b90508073ffffffffffffffffffffffffffffffffffffffff168373ffffffffffffffffffffffffffffffffffffffff1603610796576040517f08c379a000000000000000000000000000000000000000000000000000000000815260040161078d906128c2565b60405180910390fd5b8073ffffffffffffffffffffffffffffffffffffffff166107b5611196565b73ffffffffffffffffffffffffffffffffffffffff1614806107e457506107e3816107de611196565b61104d565b5b610823576040517f08c379a000000000000000000000000000000000000000000000000000000000815260040161081a90612954565b60405180910390fd5b61082d838361119e565b505050565b61083a611fcf565b60096000838152602001908152602001600020604051806060016040529081600082015481526020016001820180546108729061281f565b80601f016020809104026020016040519081016040528092919081815260200182805461089e9061281f565b80156108eb5780601f106108c0576101008083540402835291602001916108eb565b820191906000526020600020905b8154815290600101906020018083116108ce57829003601f168201915b505050505081526020016002820154815250509050919050565b60065481565b61091c610916611196565b82611257565b61095b576040517f08c379a0000000000000000000000000000000000000000000000000000000008152600401610952906129e6565b60405180910390fd5b6109668383836112ec565b505050565b600860009054906101000a900473ffffffffffffffffffffffffffffffffffffffff1673ffffffffffffffffffffffffffffffffffffffff163373ffffffffffffffffffffffffffffffffffffffff16146109c557600080fd5b6000600860009054906101000a900473ffffffffffffffffffffffffffffffffffffffff1673ffffffffffffffffffffffffffffffffffffffff1647604051610a0d90612a37565b60006040518083038185875af1925050503d8060008114610a4a576040519150601f19603f3d011682016040523d82523d6000602084013e610a4f565b606091505b5050905080610a5d57600080fd5b50565b610a7b83838360405180602001604052806000815250610ed1565b505050565b600080610a8c836115e5565b9050600073ffffffffffffffffffffffffffffffffffffffff168173ffffffffffffffffffffffffffffffffffffffff1603610afd576040517f08c379a0000000000000000000000000000000000000000000000000000000008152600401610af490612a98565b60405180910390fd5b80915050919050565b600a6020528160005260406000206020528060005260406000206000915091509054906101000a900460ff1681565b60008073ffffffffffffffffffffffffffffffffffffffff168273ffffffffffffffffffffffffffffffffffffffff1603610ba5576040517f08c379a0000000000000000000000000000000000000000000000000000000008152600401610b9c90612b2a565b60405180910390fd5b600360008373ffffffffffffffffffffffffffffffffffffffff1673ffffffffffffffffffffffffffffffffffffffff168152602001908152602001600020549050919050565b60075481565b600860009054906101000a900473ffffffffffffffffffffffffffffffffffffffff1681565b606060018054610c279061281f565b80601f0160208091040260200160405190810160405280929190818152602001828054610c539061281f565b8015610ca05780601f10610c7557610100808354040283529160200191610ca0565b820191906000526020600020905b815481529060010190602001808311610c8357829003601f168201915b5050505050905090565b60008103610cb757600080fd5b600754811115610cc657600080fd5b60001515600a600083815260200190815260200160002060003373ffffffffffffffffffffffffffffffffffffffff1673ffffffffffffffffffffffffffffffffffffffff16815260200190815260200160002060009054906101000a900460ff16151514610d3457600080fd5b6009600082815260200190815260200160002060020154341015610d5757600080fd5b6001600a600083815260200190815260200160002060003373ffffffffffffffffffffffffffffffffffffffff1673ffffffffffffffffffffffffffffffffffffffff16815260200190815260200160002060006101000a81548160ff02191690831515021790555060066000815480929190610dd390612b79565b9190505550610de3336001611622565b50565b600860009054906101000a900473ffffffffffffffffffffffffffffffffffffffff1673ffffffffffffffffffffffffffffffffffffffff163373ffffffffffffffffffffffffffffffffffffffff1614610e4057600080fd5b60076000815480929190610e5390612b79565b91905055506040518060600160405280600754815260200183815260200182815250600960006007548152602001908152602001600020600082015181600001556020820151816001019081610ea99190612d6d565b50604082015181600201559050505050565b610ecd610ec6611196565b8383611640565b5050565b610ee2610edc611196565b83611257565b610f21576040517f08c379a0000000000000000000000000000000000000000000000000000000008152600401610f18906129e6565b60405180910390fd5b610f2d848484846117ac565b50505050565b6060610f3e8261114b565b6000610f48611808565b90506000815111610f685760405180602001604052806000815250610f93565b80610f728461181f565b604051602001610f83929190612e7b565b6040516020818303038152906040525b915050919050565b6009602052806000526040600020600091509050806000015490806001018054610fc49061281f565b80601f0160208091040260200160405190810160405280929190818152602001828054610ff09061281f565b801561103d5780601f106110125761010080835404028352916020019161103d565b820191906000526020600020905b81548152906001019060200180831161102057829003601f168201915b5050505050908060020154905083565b6000600560008473ffffffffffffffffffffffffffffffffffffffff1673ffffffffffffffffffffffffffffffffffffffff16815260200190815260200160002060008373ffffffffffffffffffffffffffffffffffffffff1673ffffffffffffffffffffffffffffffffffffffff16815260200190815260200160002060009054906101000a900460ff16905092915050565b60007f01ffc9a7000000000000000000000000000000000000000000000000000000007bffffffffffffffffffffffffffffffffffffffffffffffffffffffff1916827bffffffffffffffffffffffffffffffffffffffffffffffffffffffff1916149050919050565b611154816118ed565b611193576040517f08c379a000000000000000000000000000000000000000000000000000000000815260040161118a90612a98565b60405180910390fd5b50565b600033905090565b816004600083815260200190815260200160002060006101000a81548173ffffffffffffffffffffffffffffffffffffffff021916908373ffffffffffffffffffffffffffffffffffffffff160217905550808273ffffffffffffffffffffffffffffffffffffffff1661121183610a80565b73ffffffffffffffffffffffffffffffffffffffff167f8c5be1e5ebec7d5bd14f71427d1e84f3dd0314c0f7b2291e5b200ac8c7c3b92560405160405180910390a45050565b60008061126383610a80565b90508073ffffffffffffffffffffffffffffffffffffffff168473ffffffffffffffffffffffffffffffffffffffff1614806112a557506112a4818561104d565b5b806112e357508373ffffffffffffffffffffffffffffffffffffffff166112cb846106d5565b73ffffffffffffffffffffffffffffffffffffffff16145b91505092915050565b8273ffffffffffffffffffffffffffffffffffffffff1661130c82610a80565b73ffffffffffffffffffffffffffffffffffffffff1614611362576040517f08c379a000000000000000000000000000000000000000000000000000000000815260040161135990612f11565b60405180910390fd5b600073ffffffffffffffffffffffffffffffffffffffff168273ffffffffffffffffffffffffffffffffffffffff16036113d1576040517f08c379a00000000000000000000000000000000000000000000000000000000081526004016113c890612fa3565b60405180910390fd5b6113de838383600161192e565b8273ffffffffffffffffffffffffffffffffffffffff166113fe82610a80565b73ffffffffffffffffffffffffffffffffffffffff1614611454576040517f08c379a000000000000000000000000000000000000000000000000000000000815260040161144b90612f11565b60405180910390fd5b6004600082815260200190815260200160002060006101000a81549073ffffffffffffffffffffffffffffffffffffffff02191690556001600360008573ffffffffffffffffffffffffffffffffffffffff1673ffffffffffffffffffffffffffffffffffffffff168152602001908152602001600020600082825403925050819055506001600360008473ffffffffffffffffffffffffffffffffffffffff1673ffffffffffffffffffffffffffffffffffffffff16815260200190815260200160002060008282540192505081905550816002600083815260200190815260200160002060006101000a81548173ffffffffffffffffffffffffffffffffffffffff021916908373ffffffffffffffffffffffffffffffffffffffff160217905550808273ffffffffffffffffffffffffffffffffffffffff168473ffffffffffffffffffffffffffffffffffffffff167fddf252ad1be2c89b69c2b068fc378daa952ba7f163c4a11628f55a4df523b3ef60405160405180910390a46115e08383836001611a54565b505050565b60006002600083815260200190815260200160002060009054906101000a900473ffffffffffffffffffffffffffffffffffffffff169050919050565b61163c828260405180602001604052806000815250611a5a565b5050565b8173ffffffffffffffffffffffffffffffffffffffff168373ffffffffffffffffffffffffffffffffffffffff16036116ae576040517f08c379a00000000000000000000000000000000000000000000000000000000081526004016116a59061300f565b60405180910390fd5b80600560008573ffffffffffffffffffffffffffffffffffffffff1673ffffffffffffffffffffffffffffffffffffffff16815260200190815260200160002060008473ffffffffffffffffffffffffffffffffffffffff1673ffffffffffffffffffffffffffffffffffffffff16815260200190815260200160002060006101000a81548160ff0219169083151502179055508173ffffffffffffffffffffffffffffffffffffffff168373ffffffffffffffffffffffffffffffffffffffff167f17307eab39ab6107e8899845ad3d59bd9653f200f220920489ca2b5937696c318360405161179f91906120a4565b60405180910390a3505050565b6117b78484846112ec565b6117c384848484611ab5565b611802576040517f08c379a00000000000000000000000000000000000000000000000000000000081526004016117f9906130a1565b60405180910390fd5b50505050565b606060405180602001604052806000815250905090565b60606000600161182e84611c3c565b01905060008167ffffffffffffffff81111561184d5761184c61245b565b5b6040519080825280601f01601f19166020018201604052801561187f5781602001600182028036833780820191505090505b509050600082602001820190505b6001156118e2578080600190039150507f3031323334353637383961626364656600000000000000000000000000000000600a86061a8153600a85816118d6576118d56130c1565b5b0494506000850361188d575b819350505050919050565b60008073ffffffffffffffffffffffffffffffffffffffff1661190f836115e5565b73ffffffffffffffffffffffffffffffffffffffff1614159050919050565b6001811115611a4e57600073ffffffffffffffffffffffffffffffffffffffff168473ffffffffffffffffffffffffffffffffffffffff16146119c25780600360008673ffffffffffffffffffffffffffffffffffffffff1673ffffffffffffffffffffffffffffffffffffffff16815260200190815260200160002060008282546119ba91906130f0565b925050819055505b600073ffffffffffffffffffffffffffffffffffffffff168373ffffffffffffffffffffffffffffffffffffffff1614611a4d5780600360008573ffffffffffffffffffffffffffffffffffffffff1673ffffffffffffffffffffffffffffffffffffffff1681526020019081526020016000206000828254611a459190613124565b925050819055505b5b50505050565b50505050565b611a648383611d8f565b611a716000848484611ab5565b611ab0576040517f08c379a0000000000000000000000000000000000000000000000000000000008152600401611aa7906130a1565b60405180910390fd5b505050565b6000611ad68473ffffffffffffffffffffffffffffffffffffffff16611fac565b15611c2f578373ffffffffffffffffffffffffffffffffffffffff1663150b7a02611aff611196565b8786866040518563ffffffff1660e01b8152600401611b2194939291906131ad565b6020604051808303816000875af1925050508015611b5d57506040513d601f19601f82011682018060405250810190611b5a919061320e565b60015b611bdf573d8060008114611b8d576040519150601f19603f3d011682016040523d82523d6000602084013e611b92565b606091505b506000815103611bd7576040517f08c379a0000000000000000000000000000000000000000000000000000000008152600401611bce906130a1565b60405180910390fd5b805181602001fd5b63150b7a0260e01b7bffffffffffffffffffffffffffffffffffffffffffffffffffffffff1916817bffffffffffffffffffffffffffffffffffffffffffffffffffffffff191614915050611c34565b600190505b949350505050565b600080600090507a184f03e93ff9f4daa797ed6e38ed64bf6a1f0100000000000000008310611c9a577a184f03e93ff9f4daa797ed6e38ed64bf6a1f0100000000000000008381611c9057611c8f6130c1565b5b0492506040810190505b6d04ee2d6d415b85acef81000000008310611cd7576d04ee2d6d415b85acef81000000008381611ccd57611ccc6130c1565b5b0492506020810190505b662386f26fc100008310611d0657662386f26fc100008381611cfc57611cfb6130c1565b5b0492506010810190505b6305f5e1008310611d2f576305f5e1008381611d2557611d246130c1565b5b0492506008810190505b6127108310611d54576127108381611d4a57611d496130c1565b5b0492506004810190505b60648310611d775760648381611d6d57611d6c6130c1565b5b0492506002810190505b600a8310611d86576001810190505b80915050919050565b600073ffffffffffffffffffffffffffffffffffffffff168273ffffffffffffffffffffffffffffffffffffffff1603611dfe576040517f08c379a0000000000000000000000000000000000000000000000000000000008152600401611df590613287565b60405180910390fd5b611e07816118ed565b15611e47576040517f08c379a0000000000000000000000000000000000000000000000000000000008152600401611e3e906132f3565b60405180910390fd5b611e5560008383600161192e565b611e5e816118ed565b15611e9e576040517f08c379a0000000000000000000000000000000000000000000000000000000008152600401611e95906132f3565b60405180910390fd5b6001600360008473ffffffffffffffffffffffffffffffffffffffff1673ffffffffffffffffffffffffffffffffffffffff16815260200190815260200160002060008282540192505081905550816002600083815260200190815260200160002060006101000a81548173ffffffffffffffffffffffffffffffffffffffff021916908373ffffffffffffffffffffffffffffffffffffffff160217905550808273ffffffffffffffffffffffffffffffffffffffff16600073ffffffffffffffffffffffffffffffffffffffff167fddf252ad1be2c89b69c2b068fc378daa952ba7f163c4a11628f55a4df523b3ef60405160405180910390a4611fa8600083836001611a54565b5050565b6000808273ffffffffffffffffffffffffffffffffffffffff163b119050919050565b60405180606001604052806000815260200160608152602001600081525090565b6000604051905090565b600080fd5b600080fd5b60007fffffffff0000000000000000000000000000000000000000000000000000000082169050919050565b61203981612004565b811461204457600080fd5b50565b60008135905061205681612030565b92915050565b60006020828403121561207257612071611ffa565b5b600061208084828501612047565b91505092915050565b60008115159050919050565b61209e81612089565b82525050565b60006020820190506120b96000830184612095565b92915050565b600081519050919050565b600082825260208201905092915050565b60005b838110156120f95780820151818401526020810190506120de565b60008484015250505050565b6000601f19601f8301169050919050565b6000612121826120bf565b61212b81856120ca565b935061213b8185602086016120db565b61214481612105565b840191505092915050565b600060208201905081810360008301526121698184612116565b905092915050565b6000819050919050565b61218481612171565b811461218f57600080fd5b50565b6000813590506121a18161217b565b92915050565b6000602082840312156121bd576121bc611ffa565b5b60006121cb84828501612192565b91505092915050565b600073ffffffffffffffffffffffffffffffffffffffff82169050919050565b60006121ff826121d4565b9050919050565b61220f816121f4565b82525050565b600060208201905061222a6000830184612206565b92915050565b612239816121f4565b811461224457600080fd5b50565b60008135905061225681612230565b92915050565b6000806040838503121561227357612272611ffa565b5b600061228185828601612247565b925050602061229285828601612192565b9150509250929050565b6122a581612171565b82525050565b600082825260208201905092915050565b60006122c7826120bf565b6122d181856122ab565b93506122e18185602086016120db565b6122ea81612105565b840191505092915050565b600060608301600083015161230d600086018261229c565b506020830151848203602086015261232582826122bc565b915050604083015161233a604086018261229c565b508091505092915050565b6000602082019050818103600083015261235f81846122f5565b905092915050565b61237081612171565b82525050565b600060208201905061238b6000830184612367565b92915050565b6000806000606084860312156123aa576123a9611ffa565b5b60006123b886828701612247565b93505060206123c986828701612247565b92505060406123da86828701612192565b9150509250925092565b600080604083850312156123fb576123fa611ffa565b5b600061240985828601612192565b925050602061241a85828601612247565b9150509250929050565b60006020828403121561243a57612439611ffa565b5b600061244884828501612247565b91505092915050565b600080fd5b600080fd5b7f4e487b7100000000000000000000000000000000000000000000000000000000600052604160045260246000fd5b61249382612105565b810181811067ffffffffffffffff821117156124b2576124b161245b565b5b80604052505050565b60006124c5611ff0565b90506124d1828261248a565b919050565b600067ffffffffffffffff8211156124f1576124f061245b565b5b6124fa82612105565b9050602081019050919050565b82818337600083830152505050565b6000612529612524846124d6565b6124bb565b90508281526020810184848401111561254557612544612456565b5b612550848285612507565b509392505050565b600082601f83011261256d5761256c612451565b5b813561257d848260208601612516565b91505092915050565b6000806040838503121561259d5761259c611ffa565b5b600083013567ffffffffffffffff8111156125bb576125ba611fff565b5b6125c785828601612558565b92505060206125d885828601612192565b9150509250929050565b6125eb81612089565b81146125f657600080fd5b50565b600081359050612608816125e2565b92915050565b6000806040838503121561262557612624611ffa565b5b600061263385828601612247565b9250506020612644858286016125f9565b9150509250929050565b600067ffffffffffffffff8211156126695761266861245b565b5b61267282612105565b9050602081019050919050565b600061269261268d8461264e565b6124bb565b9050828152602081018484840111156126ae576126ad612456565b5b6126b9848285612507565b509392505050565b600082601f8301126126d6576126d5612451565b5b81356126e684826020860161267f565b91505092915050565b6000806000806080858703121561270957612708611ffa565b5b600061271787828801612247565b945050602061272887828801612247565b935050604061273987828801612192565b925050606085013567ffffffffffffffff81111561275a57612759611fff565b5b612766878288016126c1565b91505092959194509250565b60006060820190506127876000830186612367565b81810360208301526127998185612116565b90506127a86040830184612367565b949350505050565b600080604083850312156127c7576127c6611ffa565b5b60006127d585828601612247565b92505060206127e685828601612247565b9150509250929050565b7f4e487b7100000000000000000000000000000000000000000000000000000000600052602260045260246000fd5b6000600282049050600182168061283757607f821691505b60208210810361284a576128496127f0565b5b50919050565b7f4552433732313a20617070726f76616c20746f2063757272656e74206f776e6560008201527f7200000000000000000000000000000000000000000000000000000000000000602082015250565b60006128ac6021836120ca565b91506128b782612850565b604082019050919050565b600060208201905081810360008301526128db8161289f565b9050919050565b7f4552433732313a20617070726f76652063616c6c6572206973206e6f7420746f60008201527f6b656e206f776e6572206f7220617070726f76656420666f7220616c6c000000602082015250565b600061293e603d836120ca565b9150612949826128e2565b604082019050919050565b6000602082019050818103600083015261296d81612931565b9050919050565b7f4552433732313a2063616c6c6572206973206e6f7420746f6b656e206f776e6560008201527f72206f7220617070726f76656400000000000000000000000000000000000000602082015250565b60006129d0602d836120ca565b91506129db82612974565b604082019050919050565b600060208201905081810360008301526129ff816129c3565b9050919050565b600081905092915050565b50565b6000612a21600083612a06565b9150612a2c82612a11565b600082019050919050565b6000612a4282612a14565b9150819050919050565b7f4552433732313a20696e76616c696420746f6b656e2049440000000000000000600082015250565b6000612a826018836120ca565b9150612a8d82612a4c565b602082019050919050565b60006020820190508181036000830152612ab181612a75565b9050919050565b7f4552433732313a2061646472657373207a65726f206973206e6f74206120766160008201527f6c6964206f776e65720000000000000000000000000000000000000000000000602082015250565b6000612b146029836120ca565b9150612b1f82612ab8565b604082019050919050565b60006020820190508181036000830152612b4381612b07565b9050919050565b7f4e487b7100000000000000000000000000000000000000000000000000000000600052601160045260246000fd5b6000612b8482612171565b91507fffffffffffffffffffffffffffffffffffffffffffffffffffffffffffffffff8203612bb657612bb5612b4a565b5b600182019050919050565b60008190508160005260206000209050919050565b60006020601f8301049050919050565b600082821b905092915050565b600060088302612c237fffffffffffffffffffffffffffffffffffffffffffffffffffffffffffffffff82612be6565b612c2d8683612be6565b95508019841693508086168417925050509392505050565b6000819050919050565b6000612c6a612c65612c6084612171565b612c45565b612171565b9050919050565b6000819050919050565b612c8483612c4f565b612c98612c9082612c71565b848454612bf3565b825550505050565b600090565b612cad612ca0565b612cb8818484612c7b565b505050565b5b81811015612cdc57612cd1600082612ca5565b600181019050612cbe565b5050565b601f821115612d2157612cf281612bc1565b612cfb84612bd6565b81016020851015612d0a578190505b612d1e612d1685612bd6565b830182612cbd565b50505b505050565b600082821c905092915050565b6000612d4460001984600802612d26565b1980831691505092915050565b6000612d5d8383612d33565b9150826002028217905092915050565b612d76826120bf565b67ffffffffffffffff811115612d8f57612d8e61245b565b5b612d99825461281f565b612da4828285612ce0565b600060209050601f831160018114612dd75760008415612dc5578287015190505b612dcf8582612d51565b865550612e37565b601f198416612de586612bc1565b60005b82811015612e0d57848901518255600182019150602085019450602081019050612de8565b86831015612e2a5784890151612e26601f891682612d33565b8355505b6001600288020188555050505b505050505050565b600081905092915050565b6000612e55826120bf565b612e5f8185612e3f565b9350612e6f8185602086016120db565b80840191505092915050565b6000612e878285612e4a565b9150612e938284612e4a565b91508190509392505050565b7f4552433732313a207472616e736665722066726f6d20696e636f72726563742060008201527f6f776e6572000000000000000000000000000000000000000000000000000000602082015250565b6000612efb6025836120ca565b9150612f0682612e9f565b604082019050919050565b60006020820190508181036000830152612f2a81612eee565b9050919050565b7f4552433732313a207472616e7366657220746f20746865207a65726f2061646460008201527f7265737300000000000000000000000000000000000000000000000000000000602082015250565b6000612f8d6024836120ca565b9150612f9882612f31565b604082019050919050565b60006020820190508181036000830152612fbc81612f80565b9050919050565b7f4552433732313a20617070726f766520746f2063616c6c657200000000000000600082015250565b6000612ff96019836120ca565b915061300482612fc3565b602082019050919050565b6000602082019050818103600083015261302881612fec565b9050919050565b7f4552433732313a207472616e7366657220746f206e6f6e20455243373231526560008201527f63656976657220696d706c656d656e7465720000000000000000000000000000602082015250565b600061308b6032836120ca565b91506130968261302f565b604082019050919050565b600060208201905081810360008301526130ba8161307e565b9050919050565b7f4e487b7100000000000000000000000000000000000000000000000000000000600052601260045260246000fd5b60006130fb82612171565b915061310683612171565b925082820390508181111561311e5761311d612b4a565b5b92915050565b600061312f82612171565b915061313a83612171565b925082820190508082111561315257613151612b4a565b5b92915050565b600081519050919050565b600082825260208201905092915050565b600061317f82613158565b6131898185613163565b93506131998185602086016120db565b6131a281612105565b840191505092915050565b60006080820190506131c26000830187612206565b6131cf6020830186612206565b6131dc6040830185612367565b81810360608301526131ee8184613174565b905095945050505050565b60008151905061320881612030565b92915050565b60006020828403121561322457613223611ffa565b5b6000613232848285016131f9565b91505092915050565b7f4552433732313a206d696e7420746f20746865207a65726f2061646472657373600082015250565b60006132716020836120ca565b915061327c8261323b565b602082019050919050565b600060208201905081810360008301526132a081613264565b9050919050565b7f4552433732313a20746f6b656e20616c7265616479206d696e74656400000000600082015250565b60006132dd601c836120ca565b91506132e8826132a7565b602082019050919050565b6000602082019050818103600083015261330c816132d0565b905091905056fea2646970667358221220f3f54b7887f08f82c2f6421e1887505e19c217e246d55b798c4a94c0b8830d1464736f6c63430008110033",
  "linkReferences": {},
  "deployedLinkReferences": {}
}